{
  "_format": "hh-sol-artifact-1",
  "contractName": "Bank",
  "sourceName": "contracts/bank.sol",
  "abi": [
    {
      "inputs": [],
      "stateMutability": "nonpayable",
      "type": "constructor"
    },
    {
      "inputs": [
        {
          "internalType": "address",
          "name": "",
          "type": "address"
        }
      ],
      "name": "accountBalance",
      "outputs": [
        {
          "internalType": "uint256",
          "name": "",
          "type": "uint256"
        }
      ],
      "stateMutability": "view",
      "type": "function"
    },
    {
      "inputs": [],
      "name": "bankName",
      "outputs": [
        {
          "internalType": "string",
          "name": "",
          "type": "string"
        }
      ],
      "stateMutability": "view",
      "type": "function"
    },
    {
      "inputs": [],
      "name": "bankOwner",
      "outputs": [
        {
          "internalType": "address",
          "name": "",
          "type": "address"
        }
      ],
      "stateMutability": "view",
      "type": "function"
    },
    {
      "inputs": [],
      "name": "depositMoney",
      "outputs": [],
      "stateMutability": "payable",
      "type": "function"
    },
    {
      "inputs": [],
      "name": "getBankBalance",
      "outputs": [
        {
          "internalType": "uint256",
          "name": "",
          "type": "uint256"
        }
      ],
      "stateMutability": "view",
      "type": "function"
    },
    {
      "inputs": [],
      "name": "getCustomerBalance",
      "outputs": [
        {
          "internalType": "uint256",
          "name": "",
          "type": "uint256"
        }
      ],
      "stateMutability": "view",
      "type": "function"
    },
    {
      "inputs": [
        {
          "internalType": "string",
          "name": "_name",
          "type": "string"
        }
      ],
      "name": "setBankName",
      "outputs": [],
      "stateMutability": "nonpayable",
      "type": "function"
    },
    {
      "inputs": [
        {
          "internalType": "address payable",
          "name": "_to",
          "type": "address"
        },
        {
          "internalType": "uint256",
          "name": "_total",
          "type": "uint256"
        }
      ],
      "name": "withdrawMoney",
      "outputs": [],
      "stateMutability": "nonpayable",
      "type": "function"
    }
  ],
  "bytecode": "0x608060405234801561001057600080fd5b50336000806101000a81548173ffffffffffffffffffffffffffffffffffffffff021916908373ffffffffffffffffffffffffffffffffffffffff160217905550610d46806100606000396000f3fe60806040526004361061007b5760003560e01c8063a853409a1161004e578063a853409a14610109578063d294cb0f14610134578063e147aaa714610171578063f274c8971461019c5761007b565b806316c05aa21461008057806327d358011461008a57806370142690146100b55780637b83b50b146100de575b600080fd5b6100886101c5565b005b34801561009657600080fd5b5061009f610260565b6040516100ac91906109a7565b60405180910390f35b3480156100c157600080fd5b506100dc60048036038101906100d79190610782565b6102ee565b005b3480156100ea57600080fd5b506100f3610396565b6040516101009190610a49565b60405180910390f35b34801561011557600080fd5b5061011e61042d565b60405161012b9190610a49565b60405180910390f35b34801561014057600080fd5b5061015b6004803603810190610156919061071d565b610474565b6040516101689190610a49565b60405180910390f35b34801561017d57600080fd5b5061018661048c565b604051610193919061098c565b60405180910390f35b3480156101a857600080fd5b506101c360048036038101906101be9190610746565b6104b0565b005b60003411610208576040517f08c379a00000000000000000000000000000000000000000000000000000000081526004016101ff90610a29565b60405180910390fd5b34600260003373ffffffffffffffffffffffffffffffffffffffff1673ffffffffffffffffffffffffffffffffffffffff16815260200190815260200160002060008282546102579190610ae1565b92505081905550565b6001805461026d90610bfb565b80601f016020809104026020016040519081016040528092919081815260200182805461029990610bfb565b80156102e65780601f106102bb576101008083540402835291602001916102e6565b820191906000526020600020905b8154815290600101906020018083116102c957829003601f168201915b505050505081565b60008054906101000a900473ffffffffffffffffffffffffffffffffffffffff1673ffffffffffffffffffffffffffffffffffffffff163373ffffffffffffffffffffffffffffffffffffffff161461037c576040517f08c379a0000000000000000000000000000000000000000000000000000000008152600401610373906109c9565b60405180910390fd5b80600190805190602001906103929291906105d3565b5050565b60008060009054906101000a900473ffffffffffffffffffffffffffffffffffffffff1673ffffffffffffffffffffffffffffffffffffffff163373ffffffffffffffffffffffffffffffffffffffff1614610427576040517f08c379a000000000000000000000000000000000000000000000000000000000815260040161041e90610a09565b60405180910390fd5b47905090565b6000600260003373ffffffffffffffffffffffffffffffffffffffff1673ffffffffffffffffffffffffffffffffffffffff16815260200190815260200160002054905090565b60026020528060005260406000206000915090505481565b60008054906101000a900473ffffffffffffffffffffffffffffffffffffffff1681565b600260008373ffffffffffffffffffffffffffffffffffffffff1673ffffffffffffffffffffffffffffffffffffffff16815260200190815260200160002054811115610532576040517f08c379a0000000000000000000000000000000000000000000000000000000008152600401610529906109e9565b60405180910390fd5b80600260008473ffffffffffffffffffffffffffffffffffffffff1673ffffffffffffffffffffffffffffffffffffffff16815260200190815260200160002060008282546105819190610b37565b925050819055508173ffffffffffffffffffffffffffffffffffffffff166108fc829081150290604051600060405180830381858888f193505050501580156105ce573d6000803e3d6000fd5b505050565b8280546105df90610bfb565b90600052602060002090601f0160209004810192826106015760008555610648565b82601f1061061a57805160ff1916838001178555610648565b82800160010185558215610648579182015b8281111561064757825182559160200191906001019061062c565b5b5090506106559190610659565b5090565b5b8082111561067257600081600090555060010161065a565b5090565b600061068961068484610a95565b610a64565b9050828152602081018484840111156106a157600080fd5b6106ac848285610bb9565b509392505050565b6000813590506106c381610ccb565b92915050565b6000813590506106d881610ce2565b92915050565b600082601f8301126106ef57600080fd5b81356106ff848260208601610676565b91505092915050565b60008135905061071781610cf9565b92915050565b60006020828403121561072f57600080fd5b600061073d848285016106b4565b91505092915050565b6000806040838503121561075957600080fd5b6000610767858286016106c9565b925050602061077885828601610708565b9150509250929050565b60006020828403121561079457600080fd5b600082013567ffffffffffffffff8111156107ae57600080fd5b6107ba848285016106de565b91505092915050565b6107cc81610b6b565b82525050565b60006107dd82610ac5565b6107e78185610ad0565b93506107f7818560208601610bc8565b61080081610cba565b840191505092915050565b6000610818602c83610ad0565b91507f4f6e6c79207468652062616e6b206f776e65722063616e206368616e6765207460008301527f68652062616e6b206e616d6500000000000000000000000000000000000000006020830152604082019050919050565b600061087e601483610ad0565b91507f496e73756666696369656e742062616c616e63650000000000000000000000006000830152602082019050919050565b60006108be602883610ad0565b91507f4f6e6c792062616e6b206f776e65722063616e2073656520616c6c207468652060008301527f62616c616e6365730000000000000000000000000000000000000000000000006020830152604082019050919050565b6000610924602583610ad0565b91507f596f75206861766520746f206465706f7369742061207370656369666963206160008301527f6d6f756e740000000000000000000000000000000000000000000000000000006020830152604082019050919050565b61098681610baf565b82525050565b60006020820190506109a160008301846107c3565b92915050565b600060208201905081810360008301526109c181846107d2565b905092915050565b600060208201905081810360008301526109e28161080b565b9050919050565b60006020820190508181036000830152610a0281610871565b9050919050565b60006020820190508181036000830152610a22816108b1565b9050919050565b60006020820190508181036000830152610a4281610917565b9050919050565b6000602082019050610a5e600083018461097d565b92915050565b6000604051905081810181811067ffffffffffffffff82111715610a8b57610a8a610c8b565b5b8060405250919050565b600067ffffffffffffffff821115610ab057610aaf610c8b565b5b601f19601f8301169050602081019050919050565b600081519050919050565b600082825260208201905092915050565b6000610aec82610baf565b9150610af783610baf565b9250827fffffffffffffffffffffffffffffffffffffffffffffffffffffffffffffffff03821115610b2c57610b2b610c2d565b5b828201905092915050565b6000610b4282610baf565b9150610b4d83610baf565b925082821015610b6057610b5f610c2d565b5b828203905092915050565b6000610b7682610b8f565b9050919050565b6000610b8882610b8f565b9050919050565b600073ffffffffffffffffffffffffffffffffffffffff82169050919050565b6000819050919050565b82818337600083830152505050565b60005b83811015610be6578082015181840152602081019050610bcb565b83811115610bf5576000848401525b50505050565b60006002820490506001821680610c1357607f821691505b60208210811415610c2757610c26610c5c565b5b50919050565b7f4e487b7100000000000000000000000000000000000000000000000000000000600052601160045260246000fd5b7f4e487b7100000000000000000000000000000000000000000000000000000000600052602260045260246000fd5b7f4e487b7100000000000000000000000000000000000000000000000000000000600052604160045260246000fd5b6000601f19601f8301169050919050565b610cd481610b6b565b8114610cdf57600080fd5b50565b610ceb81610b7d565b8114610cf657600080fd5b50565b610d0281610baf565b8114610d0d57600080fd5b5056fea2646970667358221220cea2a66c49331b375da540487425adb0167bfb79723622c20e8c32e3bedde20964736f6c63430008000033",
  "linkReferences": {},
  "deployedLinkReferences": {}
}